S0110000344C545F546F7563682E73726563DD
S11300000C9466000C9483000C9483000C9483007D
S11300100C9483000C9483000C9483000C94830050
S11300200C9483000C9483000C9483000C94830040
S11300300C9483000C9483000C9483000C94830030
S11300400C948A000C9483000C9483000C94DC03BD
S11300500C9483000C9483000C9483000C94830010
S11300600C9483000C9483000C9483000C94830000
S11300700C9483000C9483000C9483000C948300F0
S11300800C9483000C9483000C9483000C948300E0
S11300900C9483000C9483000C9483000C94490307
S11300A00C9483000C9483000C9483000C948300C0
S11300B00C9483000C9483000C9483000C948300B0
S11300C00C9483000C9483000C94830011241FBEB1
S11300D0CFEFD8E0DEBFCDBF11E0A0E0B1E0EEEAA3
S11300E0FAE102C005900D92AA37B107D9F721E0D1
S11300F0AAE7B1E001C01D92A63EB207E1F70E9453
S1130100BD010C94550D0C9400000E9497030E94AD
S1130110B00208951F920F920FB60F9211242F93DD
S11301203F934F935F936F937F938F939F93AF937B
S1130130BF93EF93FF930E94FD0285B3816085BB5B
S1130140FF91EF91BF91AF919F918F917F916F91AB
S11301505F914F913F912F910F900FBE0F901F9081
S1130160189584B1806B84B981E58CBD85B18061BB
S113017085B9089595B19F7E95B98EBD0DB407FEDE
S1130180FDCF85B1806185B908950F931F93CF93F7
S1130190DF938C01C0E0D0E00CC00E94BA002FEFC6
S11301A080E792E0215080409040E1F700C00000D9
S11301B02196F801EC0FFD1F80818111EECFDF91B4
S11301C0CF911F910F9108958091A5018093A00173
S11301D080E090E00E943A0380788093A501882310
S11301E0B1F09091A001911112C010927D01109272
S11301F07C0181E080939D0184E691E00E94C5002A
S113020010927D0110927C0110929D010895882323
S113021049F080917C0190917D01019690937D013C
S113022080937C01089580919F018093A20181E0D5
S113023090E00E943A03807880939F018823B1F074
S11302409091A201911112C010927B0110927A0137
S113025081E08093A30187E691E00E94C50010929B
S11302607B0110927A011092A3010895882349F02A
S113027080917A0190917B01019690937B01809308
S11302807A0108958091A70180939C0182E090E017
S11302900E943A0380788093A7018823C1F080915B
S11302A09C01811114C08091A6018F5F8093A601E7
S11302B0813029F48AE691E00E94C50008958230D5
S11302C031F48AE691E00E94C5001092A6010895D7
S11302D080919E018093A10183E090E00E943A0303
S11302E0807880939E018823C1F08091A1018111BF
S11302F014C08091A4018F5F8093A401813029F4FC
S11303008DE691E00E94C5000895823031F48DE6B7
S113031091E00E94C5001092A40108950E94BF02BA
S113032080918201813041F5109282010E94E400A3
S11303300E9413010E9442010E94680180917C0185
S113034090917D01883C9105B8F080917A0190915B
S11303507B01883C910580F080E791E00E94C50014
S113036010927D0110927C0110927B0110927A010F
S113037010929D011092A30108950E948500789423
S11303800E94B10078940E948E01FDCF0895CF930E
S1130390C82F0E944F048823E1F38C2F0E945F042E
S11303A00E9455048111FCCFCF9108950F931F93A0
S11303B0CF93DF9300D0CDB7DEB780917E018F70ED
S11303C051F00EC0F801E050FF4F80810E94C70138
S11303D00F5F1F4F02C000E010E00331110590F3DE
S11303E085E50E94C70180917E010E94C7011A829F
S11303F019824EC089819A810E941403192F0E9488
S1130400C701812F0E94C70189819A810E9421031B
S1130410192F0E94C701812F0E94C70189819A81E7
S11304200E9414038C0189819A810E942103081B74
S1130430190B802F0E94C701812F0E94C701898157
S11304409A810E942D03192F0E94C701812F0E94B7
S1130450C70189819A810E943A03882324F481E0A8
S11304600E94C70103C080E00E94C70189819A816C
S1130470FC01EE0FFF1F8E0F9F1FFC01E55EFE4F78
S113048080810E94C70189819A8101969A83898318
S113049089819A81049708F4ADCF809181010E94EB
S11304A0C70180917E0191E0980F90937E010E9494
S11304B0C7018AEA0E94C7010F900F90DF91CF9184
S11304C01F910F91089582B1877F82B982B18F7D88
S11304D082B982B18B7F82B982B18F7B82B9089550
S11304E081E0809383010895CF93DF9381E391E0CA
S11304F00E940E0B82EC91E00E949F0BC0E0D0E0C2
S11305000BC0BE0181E391E00E94A20CBE0181E315
S113051091E00E94C10C2196C430D10590F3C0E053
S1130520D0E00FC0AE01440F551F440F551F4C0FB0
S11305305D1F42555E4F6C2F83E191E00E94DA0407
S11305402196C430D10570F380E0DF91CF910895F6
S11305508F5F809381010E94D601089587BD08951D
S113056088E00E94AE02E3E6F0E08081877F80832A
S11305700E9463020E9474020E94C6010895809141
S11305808401813051F460E772E081E391E00E94DC
S1130590A90B811102C010928401809183018130E2
S11305A019F5109283010E94A70981110AC083E101
S11305B091E00E94F904882339F081E00E94A802A6
S11305C003C080E00E94A802E0911301F09114019D
S11305D08081882324F481E08093840103C081E036
S11305E0809382010E94D601089581E08093840162
S11305F084E190E00E94CF04089580917F0190915E
S11306008001449739F41092800110927F010E9476
S1130610F502089580917F01909180010196909355
S1130620800180937F010895FC01EE0FFF1FEE0F00
S1130630FF1F8E0F9F1FFC01E255FE4F81819281A7
S11306400895FC01EE0FFF1FE80FF91FEE0FFF1FC7
S1130650E653FE4F848195810895FC01EE0FFF1F40
S1130660EE0FFF1F8E0F9F1FFC01E255FE4F83818B
S113067094810895E0911701F09118019C01220FD3
S1130680331F820F931F880F991FE80FF91F808172
S113069008951F920F920FB60F9211242F933F9338
S11306A04F935F936F937F938F939F93AF93BF9376
S11306B0EF93FF930E94010DFF91EF91BF91AF91D2
S11306C09F918F917F916F915F914F913F912F9166
S11306D00F900FBE0F901F90189584B18F7B84B933
S11306E085B18F7B85B984B1806284B985B18F7DF2
S11306F085B984B1806884B985B18F7785B90E9442
S1130700CF0308950E94310408950E942A04089595
S11307108AB18E7F8AB98BB18E7F8BB98AB18260A0
S11307208AB98BB18D7F8BB90E943E04089583E012
S1130730809365008FEF809364009FE09093630043
S113074091B111B892B182B994B114B895B185B987
S113075097B117B898B188B99AB11AB89BB18BB947
S11307608DB180788DB98EB18F678EB940E060E825
S113077081E690E00E94C80313BE15BE78940E94DF
S11307806D030E9482030E9485030E9488030895DA
S11307902FB7F894FC01608340832FBF0895E4E6EB
S11307A0F0E080818B7F808380ED8CBDE5E8F1E013
S11307B010821682158208951F920F920FB60F921F
S11307C011242F933F934F935F936F937F938F9352
S11307D09F93AF93BF93EF93FF939EB5809189014D
S11307E0823029F0E0918601F09187019083E5E859
S11307F0F1E0A181B2819D012F5F3F4F32832183BC
S1130800813019F011969C9101C090E0E5E8F1E087
S1130810838181508383882311F09EBD0AC0E5E85B
S1130820F1E083E080830580F681E02D309709F0C4
S11308300995FF91EF91BF91AF919F918F917F9116
S11308406F915F914F913F912F910F900FBE0F9039
S11308501F901895E4E6F0E08081877F808380E034
S11308600895E4E6F0E080818F7D808382E084BD9A
S113087095E095BD80936E0080E00895E4E6F0E095
S113088080818D7F80831092C5008CE08093C400AA
S11308901092C00088E08093C10080E008958091A8
S11308A0C00085FB882780F908958091C000829557
S11308B086958695837091E089278170089590913B
S11308C0C00095FFFCCF8093C6000895CF92DF92BD
S11308D0FF920F931F93CF93DF93EC01AE81BF81FF
S11308E0EB01CC0FDD1FC60FD71FCA0FDB1FFA8029
S11308F0FC0144815581E6E0E69F9001E79F300DBD
S113090011248A01020F131FF80122813381F90196
S113091021813281F80104811581201B310BE8818A
S11309202E1B3109EC01EA81FB8100811181FA015E
S113093040E050E04017510739F146175707F9F0E6
S113094012968C911297F8121AC0808185588230C1
S1130950E8F0C480D58082819381EC0189819A81F9
S1130960C816D90660F48C199D09CC91D0E0C8173B
S1130970D90728F48C1B9D0B2817390738F04F5FD3
S11309805F4F13963696D6CF80E001C081E0DF91A9
S1130990CF911F910F91FF90DF90CF9008952091F8
S11309A08C0130918D01820F931F90938D01809360
S11309B08C0108950097D9F041155105C1F026E046
S11309C0629FB0011124DC011496ED91FC911597FE
S11309D0E60FF71F21E0208314968D919C911597C3
S11309E0FC01E60FF71F5383428380E008958BE0F8
S11309F008952F923F924F925F926F927F928F92BF
S1130A009F92AF92BF92CF92DF92EF92FF920F9399
S1130A101F93CF93DF93009709F47EC3EC01A12CBD
S1130A20B12C812C912C212CD12C5524539433E0BE
S1130A30C32E45E8642E56E8752E62E0362E78E023
S1130A40472EEA81FB81808191818816990608F0FE
S1130A50A6C17501EE0CFF1CEC81FD81EE0DFF1D9E
S1130A60A281B3819C919E7109F050820C811D81F9
S1130A700E0D1F1DD8018C91843009F49EC038F4EA
S1130A808230D1F008F045C0813059F081C18538F9
S1130A9009F4BFC0863809F4F5C0873009F078C17D
S1130AA036C1911167C1F80130828C819D81FC01AE
S1130AB0EE0DFF1D41825EC1D80111962C91119754
S1130AC0222329F11296ED91FC911397253018F009
S1130AD0818192810EC0D80114968D919C911597B5
S1130AE0418152818417950769F04817590730F4FA
S1130AF0019715969C938E93149704C00196F80160
S1130B00958384832150D80111962C9333C1F80125
S1130B102DC1D80114962D913C9115971296ED9103
S1130B20FC911397418152812417350709F430C190
S1130B308E819F8142175307F8F4EA81FB81241BBD
S1130B40350BDC01AA0DBB1D8C9190E0058002C021
S1130B50959587950A94E2F799272817390708F499
S1130B6017C18481882309F413C187E0F8018083C5
S1130B70EA81FB8124811AC0FC01EA0DFB1D421BA2
S1130B80530B808190E04817590708F401C1828112
S1130B90882331F0B401CE010E9466048111F8C0AB
S1130BA0E4E0D801EC93EA81FB8122818C819D8170
S1130BB0FC01EE0DFF1D2183DDC0D80114962D919B
S1130BC03C9115971296ED91FC9113978181928136
S1130BD08217930708F4BBC0EE81FF81EA0DFB1D69
S1130BE0821B930B208130E02817390708F0C5C019
S1130BF08281882331F0B401CE010E946604811100
S1130C00C7C0F8018181882309F46AC081508183B7
S1130C10B1C0E881F981AA81BB8118968C91838344
S1130C20EC81FD81EE0DFF1D44815581A281B381CC
S1130C3011968D919C91129784179507C0F0AE81FF
S1130C40BF81AA0DBB1D6C91262F30E011967C91BB
S1130C507F5F02C0359527957A95E2F7841B950B43
S1130C60621B262F30E02817390708F48FC07082E2
S1130C70EA81FB8122818C819D81FC01EE0DFF1DA7
S1130C80218342C0D80114966D917C9115971296D8
S1130C90ED91FC911397218132812617370758F47F
S1130CA011968C911197811102C0CC926FC0815022
S1130CB0F80181836BC0EE81FF81EA0DFB1D808109
S1130CC0482F50E091819F5F02C0559547959A95B2
S1130CD0E2F7261B370B841B90E08217930760F41E
S1130CE0D8016C92EA81FB8123818C819D81FC0176
S1130CF0EE0DFF1D21834AC0F8018181811102C0DC
S1130D00C08244C0815081832224239433C0F801DB
S1130D10248135810280F381E02D818192818217C3
S1130D20930758F5281B390BEE81FF81EA0DFB1D53
S1130D30808190E0EA81FB81058002C095958795CA
S1130D400A94E2F799272817390718F4D801CC92A6
S1130D5016C0F801818181110BC050828C819D8164
S1130D60FC01EE0DFF1D0280F381E02DC08210C056
S1130D7081508183DD24D3940BC0F801C0828C811F
S1130D809D81FC01EE0DFF1D118202C022242394DB
S1130D90FFEF8F1A9F0A83E0A80EB11C52CEE881A0
S1130DA0F981808187FF23C040E050E020E030E0FB
S1130DB0EA81FB81808191812817390798F4EC81BD
S1130DC0FD81E40FF51FA281B3818C9180FD05C0E4
S1130DD09081977F11F081608C932F5F3F4F4A5F22
S1130DE05F4FE6CFE881F98180818F778083D110CE
S1130DF007C0E881F98121106FC080818E7F6EC0A9
S1130E00EA81FB8181858823A1F3E881F9818081CE
S1130E1080688083EA81FB818185813051F740E0DD
S1130E2050E020E030E096E0D92EEA81FB81608139
S1130E30718126173707E8F60C811D81FA01EE0F40
S1130E40FF1FE00FF11F8081982F977FA1F1853854
S1130E5011F08330B1F5EE80FF80D701A40FB51FE8
S1130E601296BC90BB2039F180E090E0C12C86172B
S1130E709707F8F428173907D1F0D89ED001D99EE6
S1130E80B00D1124A00FB11FAC91A43011F0A638FD
S1130E9071F4DC01AA0FBB1FA80FB91FAE0DBF1D53
S1130EA01296AC91BA1203C0CB01CC24C394019620
S1130EB0DECFC11006C00280F381E02D80818E7FD9
S1130EC005C00280F381E02D8081816080832F5FE3
S1130ED03F4F4D5F5F4FA9CF8081816080838091B8
S1130EE08C0190918D01E881F98121813281A901E0
S1130EF048535F4F4817590738F4821B930BAA24B1
S1130F00A394A3E0BA2E44C08217930710F080E0A4
S1130F1004C1821B930B0197893C9105C0F3EFCF69
S1130F20885C9109E881F9812181328128533F4FFE
S1130F30328321832381211196C02481222311F03D
S1130F4021502483E881F9812581222311F0215045
S1130F5025838A809B80D40116962C9116972111A3
S1130F601BC08A809B80F4012781211148C0EA813B
S1130F70FB812381222361F020E030E0A0E0B0E097
S1130F80EA81FB8140815181A417B50708F46EC042
S1130F90893C910528F6BBCF08811981F801248189
S1130FA02111DFCFED90FC9060E070E040E050E074
S1130FB04E155F05F1F0EC81FD81E60FF71F2081EE
S1130FC0233011F0283081F424813581C280D3800C
S1130FD0D6011196CD90DC9012972C153D0520F486
S1130FE02F5F3F4F358324834F5F5F4F6A5F7F4F8F
S1130FF0DFCFF4012681D80114962C93B2CF088157
S11310001981D80115962C912111B1CFE080F1807E
S113101060E070E040E050E04E155F05F1F0EC81D7
S1131020FD81E60FF71F2081233011F0283081F471
S113103024813581C280D380D6011196CD90DC9075
S11310401297C216D30620F4215031093583248324
S11310504F5F5F4F6A5F7F4FDFCFF4012781D80175
S113106015962C9384CF2150238381CFA901440F5B
S1131070551FEC81FD81E40FF51F6081653809F08F
S113108047C06181662319F06150618341C0A08229
S11310906C817D81FB01E40FF51F0280F381E02D5B
S11310A0B082EE81FF81E20FF31FD280DD2081F157
S11310B040E050E000E010E0EA81FB816081718152
S11310C00617170728F5EE81FF81E40FF51F6281EB
S11310D0D61219C0BA01660F771FEC81FD814F014A
S11310E0860E971EF401E280F380F701F080F0FE93
S11310F00AC0F401A082EC81FD81E60FF71F028093
S1131100F381E02DB0820F5F1F4F4D5F5F4FD4CF4F
S113111011962D5F3F4F34CF8BE0DF91CF911F911C
S11311200F91FF90EF90DF90CF90BF90AF909F9082
S11311308F907F906F905F904F903F902F90089585
S11311408091950190919601A091E201B091E30103
S1131150ED91FC9111974081518125E0289FB001C8
S1131160299F700D112420E030E084179507A8F41E
S11311701496ED91FC911597E20FF31FE60FF71FFC
S1131180E0812B5F3F4FE0FD02C00196EECF9093CC
S113119096018093950180E0089510929601109233
S11311A0950181E008954AE0489F9001499F300DE0
S11311B01124E091E201F091E3010280F381E02D3A
S11311C0E20FF31F42814093F800E091E201F091B5
S11311D0E3010280F381E02DE20FF31F438140938A
S11311E0F900E091E201F091E3010280F381E02D46
S11311F0E20FF31F44814093FA00E091E201F09181
S1131200E3010280F381E02DE20FF31F4281538159
S113121064817581472F5527662777274093FB0004
S1131220E091E201F091E3010280F381E02DE20F0D
S1131230F31F40814093F200E091E201F091E30159
S11312400280F381E02DE20FF31F41814093F3000C
S113125065E0689FA001699F500D1124E091E201AF
S1131260F091E3010480F581E02DE40FF51F838103
S11312708093E500E091E201F091E3010480F581BF
S1131280E02DE40FF51F8381948188279F73909349
S1131290E600A091E201B091E3011496ED91FC9176
S11312A01597E40FF51F808181FD608314968D915D
S11312B09C911597FC01E40FF51F80818C7171F4EA
S11312C01296ED91FC911397E20FF31FE085E295DE
S11312D0EF70F0E0ED58FE4F808101C08FE3809302
S11312E0E700E091E201F091E3010280F381E02D57
S11312F0E20FF31F86818B3F10F48C5F01C08FEFE8
S11313008093E800E091E201F091E3010280F3812F
S1131310E02DE20FF31F8781807F9185892B8093D5
S1131320E400E091E201F091E30182819381FC0108
S1131330E20FF31F87818F708093E10082E1809335
S1131340E0008091E90081608093E90008954F9264
S11313505F926F927F928F929F92AF92BF92CF9241
S1131360DF92EF92FF920F931F93CF93DF938091BD
S11313709401882309F431C1A091E201B091E30101
S1131380E090E401F090E501412C512C60E070E024
S113139000E010E080E06624639491E8792EAA24AA
S11313A0AA94BB24B394CD90DC901197F6012081CC
S11313B031810217130708F00CC1E7012991399113
S11313C07E011496ED91FC911597E60FF71F40816D
S11313D04C7150E0569547955695479541155105E2
S11313E021F041305105C1F0EBC012964D915C9152
S11313F01397440D551DEA0198859F7049859417EC
S113140010F4491B01C040E002C0369527954A9567
S1131410E2F732832183D5C012964D915C911397E4
S1131420440D551DEA01098402C0369527950A9496
S1131430E2F732832183438154812115D2E03D07B1
S113144020F02F5F314091E005C0E501C21BD30BB2
S11314509E0190E0E601DA80D0E4DD1205C0369505
S11314602795992319F009C0992339F04F3F9FE339
S1131470590731F470828EE007C08824839401C038
S1131480812C2A30310598F41496ED91FC9115972E
S1131490E60FF71F208127FF60821496ED91FC91DF
S11314A01597E60FF71F5F73548343838AC06A015D
S11314B0CC24C0E3DC229D2C9294DFE09D226A01BF
S11314C0CC24DFE0DD229D2D6A01C0EFCC22DD2497
S11314D054E0D694C7945A95E1F75C2D4F7081106F
S11314E032C0203D310560F0D3E09D1649F093945D
S11314F02F5C3109F6CF9F3041F09F5F25513109B0
S113150026313105C0F79F3069F493E0991202C087
S11315109FE008C0939495E005C05F3049F05F5F99
S11315202250310923303105C0F75F3009F05BC028
S11315309F3009F454C09F5F55E055C0992061F075
S11315409A942F5C3109203D3105C0F705C09923D9
S113155041F091502551310926313105C0F79111DF
S11315600CC0911002C090E008C09A949AE005C0A3
S1131570552341F051502250310923303105C0F731
S113158051110DC09923B9F191505AE0233031051E
S1131590D0F605C02330310558F14FE05FE0292D26
S11315A030E0322F22273295307F392B242BC0E1B3
S11315B05C9F60011124C22AD32AD482C38201C051
S11315C0FFCF0F5F1F4F6B5F7F4FDAE04D0E511C53
S11315D0EACE92E09093940110C083E00EC053E0F1
S11315E09516C1F25FE02330310508F07ACFD7CFEA
S11315F05FE04FE0D4CF50E0D2CFDF91CF911F9185
S11316000F91FF90EF90DF90CF90BF90AF909F909D
S11316108F907F906F905F904F9008958F929F92DC
S1131620AF92BF92CF92DF92EF92FF92CF93DF936C
S1131630009709F476C0DC01ED91FC91C080D18063
S1131640E12CF12CA0E0B0E040E050E0BA0120E051
S113165030E0AC15BD05B1F0EC01EA81FB81EE0D83
S1131660FF1DA080B1802A293B2982809380A48019
S1131670B580482959296A297B291196DAE0ED0EAB
S1131680F11CE7CF411551056105710509F44BC003
S1131690E09194014A015B018824AA24BB246A01D5
S11316A07B01CC24DD24FF24872F9927AA27BB277D
S11316B0E11117C02093F0003093F1004093F4003F
S11316C0892C9A2CAB2CBB248092F5006701EE2464
S11316D0FF24C092F6008093F70081E08093940188
S11316E01EC0E091F0002E2B2093F0002091F10019
S11316F0232B2093F1002091F400422B4093F4001B
S11317002091F50029292093F5002091F6002E2937
S11317102093F6002091F700822B8093F70080E05D
S113172003C08BE001C082E0DF91CF91FF90EF9086
S1131730DF90CF90BF90AF909F908F9008950097C7
S113174031F09093E5018093E40180E008958BE00B
S11317500895CF93DF9300D000D0CDB7DEB71092B9
S113176098011092990110929A0110929B016115AF
S1131770710509F4DBC0009709F4D8C020919401E5
S1131780222309F4D5C0243009F093C010929701A4
S11317908091E90080FF8BC02091E80030E0A6E052
S11317A0B0E00E94460D6093980170939901809374
S11317B09A0190939B012091E3002F70DC01CB01EF
S11317C0820F911DA11DB11D8093980190939901E1
S11317D0A0939A01B0939B012091E400277004C068
S11317E0880F991FAA1FBB1F2A95D2F70E96A11D19
S11317F0B11D8093980190939901A0939A01B0939D
S11318009B012091E100237004C0880F991FAA1F37
S1131810BB1F2A95D2F722E0B695A7959795879591
S11318202A95D1F78093980190939901A0939A01F6
S1131830B0939B0119821A821B821C8221E0498188
S11318405A816B817C81481759076A077B07B0F47A
S113185030919701332329F089839A83AB83BC8326
S113186020E049815A816B817C814F5F5F4F6F4FCC
S11318707F4F49835A836B837C83E1CF2223B9F062
S11318808091E90080FF13C01092E000000082E123
S11318908093E000000081E08093E9008091900152
S11318A0909191010196909391018093900181E030
S11318B042C09093E3018093E20170938F0160939F
S11318C08E01DC01ED91FC918281803411F488E079
S11318D003C0803879F58AE08093E200E091E20168
S11318E0F091E3010190F081E02D8481803108F0D2
S11318F080E18093E30081E084BF809374001092C0
S11319009601109295010E94A00881110BC084E0F9
S11319108093940180919501909196010E94D3083F
S113192080E009C082E08093940105C08BE003C08D
S113193083E001C082E00F900F900F900F90DF9131
S1131940CF9108950097C9F0DC01ED91FC911197B6
S1131950208131812617370790F045E0469F90019A
S1131960479F300D11241496ED91FC911597E20FC9
S1131970F31F81E0808380E008958BE0089582E086
S113198008950097D1F1DC01ED91FC91119720812C
S113199031812617370798F122811496ED91FC9135
S11319A01597203459F485E0869FD001879FB00DA8
S11319B01124AE0FBF1F84E392E00CC0203881F4E1
S11319C085E0869FD001879FB00D1124AE0FBF1F05
S11319D087E695E014969C938E93139780E001C05C
S11319E082E095E0969F9001979F300D1124E20FBD
S11319F0F31F90819260908308958BE0089582E0B4
S1131A0008951092E0008091EE002091EF00E091A3
S1131A109501F0919601EE0FFF1F4091E401509162
S1131A20E501E40FF51F90E0922B91838083809170
S1131A309201909193010196909393018093920166
S1131A40892B21F4109291011092900180919501BB
S1131A5090919601019690939601809395010E942E
S1131A60A00881110AC084E08093940180919501BB
S1131A70909196010E94D30805C0E0918E01F091E7
S1131A808F01099581E0809397010895A29FB00189
S1131A90B39FC001A39F700D811D1124911DB29F9E
S1111AA0700D811D1124911D0895F894FFCF3F
S1131AAE5FB400864A03EB00000000000000AA5554
S1131ABE016EA0A8012701CA011B01190100190119
S1131ACE0019010019010004000300040014051498
S1131ADE015F013701AE0100000800000000012281
S1131AEE0600002000000000012206000004000091
S1131AFE000001220600004000000000012206043E
S1131B0E008030004C31004C32004C33004C340019
S10D1B1E4831003F1C0B05030100D1
S9030000FC
