:100000000C946C000C9489000C9489000C94890069
:100010000C9489000C9489000C9489000C9489003C
:100020000C9489000C9489000C9489000C9489002C
:100030000C9489000C9489000C9489000C9489001C
:100040000C9442080C9489000C9489000C94B60B13
:100050000C9489000C9489000C9489000C948900FC
:100060000C9489000C9489000C9489000C948900EC
:100070000C9489000C9489000C9489000C948900DC
:100080000C9489000C9489000C9489000C948900CC
:100090000C9489000C9489000C9489000C94230B17
:1000A0000C9489000C9489000C9489000C948900AC
:1000B0000C9489000C9489000C9489000C9489009C
:1000C0000C9489000C9489000C9489006364696E17
:1000D0006F70737578585B0011241FBECFEFD8E0A6
:1000E000DEBFCDBF11E0A0E0B1E0EAEAFDE302C06F
:1000F00005900D92A43CB107D9F722E0A4ECB1E041
:1001000001C01D92A433B207E1F70E9497090C9435
:10011000D31E0C9400000E94710B0E948A0A08955D
:100120008EE208954F925F926F927F928F929F928C
:10013000AF92BF92CF92DF92EF92FF92CF93DF9375
:1001400000D000D0CDB7DEB76B017C0149015A0168
:10015000DC01CB01BF7789839A83AB83BC83290100
:100160003A01E89477F8A3019201BC01CD010E9405
:100170004416181624F449805A806B807C80A501AF
:100180009401C701B6010E9420156B017C01E8941F
:10019000F7F820E030E040E054E3C301B2010E94F0
:1001A00049169B01AC0191E09983C701B6010E94F9
:1001B0008D1518160CF41982A9818A2F90E00F90E2
:1001C0000F900F900F90DF91CF91FF90EF90DF9005
:1001D000CF90BF90AF909F908F907F906F905F90E7
:1001E0004F900895FC0171836083FB0193838283A8
:1001F00008950F931F93CF93DF936115710561F1FC
:10020000009769F16817790769F1DC011496ED919F
:10021000FC911597309761F415967C936E93149723
:10022000FB01738362831182108281E090E01FC022
:100230002281338121153105C1F0EB018C01C90107
:100240000E94F200D8011496ED91FC911597D3838A
:10025000C28381E090E00BC080E090E008C080E0C5
:1002600090E005C080E090E002C081E090E0DF9186
:10027000CF911F910F9108950895CF93DF93DC01E3
:10028000892BD1F02D913C91119721153105A1F0C9
:1002900014968D919C911597E901C80FD91FFE0105
:1002A00001900020E9F73197EC1BFD0BE80FF91FD7
:1002B0001596FC93EE931497DF91CF910895EF92EA
:1002C000FF920F931F93CF93DF930097C9F0DB0149
:1002D0008C01FC0101900020E9F73197E81BF90B34
:1002E000EF012196ED91FC91CE0109957C010097DB
:1002F00051F0AE01B8010E94B5188E2D9F2D05C09A
:1003000080E090E002C080E090E0DF91CF911F910B
:100310000F91FF90EF900895AF92BF92CF92DF922E
:10032000EF92FF920F931F93CF93DF930097C1F14A
:1003300061157105C1F141155105C1F1841795078A
:10034000C1F17901EA01AB016C01012B41F0CB0154
:100350000E943C015C010E811F8112600AC0B9013C
:10036000CA010E945F015C01892B31F10E811F815E
:100370001D7F8E819F8191FD0AC088899989009790
:1003800031F0D7011296ED91FC9113970995B98A36
:10039000A88A1F830E83BE01C6010E94F9000EC009
:1003A00080E090E00BC080E090E008C080E090E04A
:1003B00005C080E090E002C080E090E0DF91CF9146
:1003C0001F910F91FF90EF90DF90CF90BF90AF9073
:1003D0000895EF92FF920F931F93CF93DF93FC0149
:1003E000892B09F473C080819181009709F479C049
:1003F000228133812115310531F044815581421725
:10040000530708F066C077230CF466C04481558119
:10041000640F751F6F5F7F4F2617370718F0840F23
:10042000951F5FC020853185232B09F058C06115C9
:1004300020E4720728F077233CF480E090E051C07C
:100440008B01000F111F02C00FEF1FE7EF010088A3
:10045000F189E02D309789F0B80109957C01892B4D
:1004600061F5EE85FF858881998109951B821A8245
:100470001982188280E090E034C0EC85FD85C801C7
:1004800009957C01009761F4EE85FF85888199814B
:1004900009951B821A821982188280E090E021C09F
:1004A0004C815D81688179814F5F5F4F0E94B518F3
:1004B000EE85FF858881998109951B830A83F982DE
:1004C000E8828C819D818E0D9F1D0BC080E090E0A5
:1004D00008C080E090E005C080E090E002C080E0CD
:1004E00090E0DF91CF911F910F91FF90EF900895D1
:1004F000DC01ED91FC9182E190E00995009729F0F3
:1005000022E1FC0111922A95E9F70895AF92BF927A
:10051000CF92DF92EF92FF920F931F93CF93DF93CF
:100520006115710509F4C6C0AB018C01009749F54E
:1005300063E070E0CA010E94E901009709F4BDC0C0
:1005400022E232E2FC0131832083128281E090E0DA
:10055000B9C09E3038F49C3048F428EF290F23307E
:1005600048F404C0923211F09C3521F48FEFE81A60
:10057000F80A05C0903218F485E0E80EF11C3196B7
:1005800003C0FC01E12CF12C90819111E2CFE01B22
:10059000F10B5701AE0EBF1EB5016D5F7F4FCA0153
:1005A0000E94E9016C01009709F48AC0EF28A9F4C0
:1005B000C2E2FC01C193CF01A501B8010E94B518A8
:1005C000F5013196EC0DFD1DC083E5012296CC0DA1
:1005D000DD1D188281E090E075C082E2F601819312
:1005E0007F01E80156C0803240F0823231F08C3514
:1005F00021F0F7018083970147C097012F5F3F4F9C
:100600008CE5F701808388818C30D9F038F489300B
:1006100021F18A30D1F0883021F50FC0823249F0C3
:100620008C3519F08D30E9F414C08CE5F701818325
:100630002BC082E2F701818327C082E6F701818324
:1006400023C086E6F70181831FC08EE6F701818310
:100650001BC082E7F701818317C084E7F70181831C
:1006600013C01F928F9384E791E09F938F933F93E2
:100670002F930E94BE1897012B5F3F4F0F900F9052
:100680000F900F900F900F9021967901FFEFEF1AC6
:10069000FF0A88818111A7CFF5013196EC0DFD1D70
:1006A00082E28083E5012296CC0DDD1D188281E077
:1006B00090E008C080E090E005C080E090E002C0DB
:1006C00080E090E0DF91CF911F910F91FF90EF902C
:1006D000DF90CF90BF90AF900895FC018085918509
:1006E0000E94860208956F927F929F92AF92BF926E
:1006F000CF92DF92EF92FF920F931F93CF93DF93EE
:10070000CDB7DEB76E970FB6F894DEBF0FBECDBF84
:100710008C016B01DC011C969C901C971D96AC9083
:100720001D971E96BC901E971F96EC90FE01319669
:100730008AE1DF011D928A95E9F70E949000F82E68
:100740001B8E1C8E1D8E1E8EC114D10409F4CEC0CA
:10075000292D3A2D4B2D5E2D692D7A2D8B2D9E2D19
:100760000E948D15811110C0292D3A2D4B2D5E2D23
:10077000692D7A2D8B2D9E2D0E9420159B01AC0199
:100780000E948D15882361F085E0EAE7F1E0DE0143
:10079000119601900D928A95E1F704E010E06CC08B
:1007A000F80102851385B801012E000C880B990B06
:1007B0000E9494159B01AC01692D7A2D8B2D9E2DE5
:1007C0000E948D15811114C01F930F938FE791E044
:1007D0009F938F93CE0101969F938F930E94BE1893
:1007E0008C010F900F900F900F900F900F9044C0BE
:1007F000EF92BF92AF929F9282E891E09F938F9386
:100800009E012F5F3F4F39013F932F930E94BE18E7
:100810008C01CE014B969F938F9389E891E09F9333
:100820008F937F926F920E94E0180FB6F894DEBF0C
:100830000FBECDBF019761F46B8D7C8D8D8D9E8D2C
:10084000292D3A2D4B2D5E2D0E949200892BA1F46B
:10085000EF92BF92AF929F928DE891E09F938F931A
:10086000CE0101969F938F930E94BE188C010FB604
:10087000F894DEBF0FBECDBF58010A311105C8F58F
:10088000B8016F5F7F4FC6010E94E901AC01892B5F
:1008900099F120E030E015C0E1E0F0E0EC0FFD1F41
:1008A000E20FF31F9081F91206C08EE2FA01E20F07
:1008B000F31F808304C0FA01E20FF31F90832F5FC0
:1008C0003F4F2A153B0540F3FA01E20FF31F108258
:1008D000D60114968D919C911597A80EB91E159668
:1008E000BC92AE92149781E090E008C080E090E066
:1008F00005C080E090E002C080E090E06E960FB608
:10090000F894DEBF0FBECDBFDF91CF911F910F9145
:10091000FF90EF90DF90CF90BF90AF909F907F902F
:100920006F9008950F931F93CF93DF93009709F46F
:100930008FC06115710509F48EC09B018C01FC010B
:10094000C681D781DD27C830D10509F454C05CF4D5
:10095000C230D105E9F1C430D105B1F0C130D105C3
:1009600009F07CC024C0C032D10509F469C024F468
:10097000609709F461C072C0C034D10509F464C045
:10098000C038D105E1F16AC065E070E0C9010E949C
:10099000E901009709F465C025E0EAE7F1E0DC0130
:1009A00001900D922A95E1F7C1E0D0E068C066E0C1
:1009B00070E0C9010E94E901009709F455C026E0E2
:1009C000E4E9F1E0DC0101900D922A95E1F757C0CE
:1009D00065E070E0C9010E94E901009709F447C091
:1009E00025E0EAE9F1E0DC0101900D922A95E1F7BA
:1009F000C1E0D0E044C00E947303EC0140C0FC01A0
:100A0000A085B1851097B1F1FD0101900020E9F7B3
:100A10003197EA1BFB0BEF012196BE01C9010E9431
:100A2000E901009751F1F80160857185AE010E94DE
:100A3000B518C1E0D0E023C00E946D03EC011FC0D7
:100A40000E94F005EC011BC00E947906EC0117C062
:100A5000C0E0D0E014C0C0E0D0E011C0C0E0D0E001
:100A60000EC0C0E0D0E00BC0C0E0D0E008C0C0E0E5
:100A7000D0E005C0C0E0D0E002C0C0E0D0E0CE01D0
:100A8000DF91CF911F910F910895CF92DF92EF9256
:100A9000FF920F931F93CF93DF93CDB7DEB762978B
:100AA0000FB6F894DEBF0FBECDBF6C017B018A018B
:100AB000FE01319682E1DF011D928A95E9F7DA01A4
:100AC000ED91FC9180E091E009959A83898320E083
:100AD00031E03C832B83FC86EB8626E0F801DE01C7
:100AE0001D9601900D922A95E1F7892B09F449C0D2
:100AF000BE016F5F7F4FC6010E949204892B09F4EB
:100B000043C0CE0101960E943D01D8011496ED919B
:100B1000FC911597309761F06D817E816F5F7F4FFB
:100B200089819A8109957C01009781F19F2D49C0A7
:100B3000D801ED91FC918D819E81019609957C01F2
:100B4000892B21F14D815E818B819C8169817A8124
:100B50004F5F5F4F8417950708F4AC01C7010E94EF
:100B6000B518ED81FE81EE0DFF1D1082D8011296A1
:100B7000ED91FC91139789819A8109958E2D9F2D76
:100B800020C0E12CF12C02C0E12CF12C89819A814A
:100B9000009741F0D8011296ED91FC9113970995B9
:100BA0001A821982E114F10451F0D8011296ED91E4
:100BB000FC911397C701099580E090E002C080E0A6
:100BC00090E062960FB6F894DEBF0FBECDBFDF9106
:100BD000CF911F910F91FF90EF90DF90CF900895EC
:100BE000EF92FF920F931F93CF93DF93DC01149644
:100BF0000D911C9115976115710509F468C0EB0101
:100C000061E070E0CE010E94E901009709F462C042
:100C10002BE5FC0120838C819D8101969D838C8333
:100C20008E819F8101969F838E833AC0BE01C80149
:100C30000E949204009709F455C0CE010E943D0124
:100C4000D8018D919C91892B41F18A859B85892BB7
:100C500029F06894EE24E1F8F12C03C0EE24E3942B
:100C6000F12CB7016F5F7F4FCE010E94E901009721
:100C7000A1F1FC0131962CE2DC012C932A853B8505
:100C8000232B21F0319620E211962C9310828C8137
:100C90009D81E80EF91EFD82EC82F8010081118130
:100CA0000115110519F662E070E0CE010E94E9011C
:100CB0000097B1F02DE5DC012C9311961C928E81EA
:100CC0009F8101979F838E8381E090E00BC080E03D
:100CD00090E008C080E090E005C080E090E002C0B5
:100CE00080E090E0DF91CF911F910F91FF90EF9006
:100CF0000895EF92FF920F931F93CF93DF93DC0140
:100D000014960D911C9115976115710509F4F5C0A4
:100D1000FB0182859385892B29F06894EE24E1F804
:100D2000F12C03C0EE24E394F12CEB01B7016F5FCB
:100D30007F4FCE010E94E901009709F4E1C02BE743
:100D4000DC012C932E813F812F5F3F4F3F832E8309
:100D50002A853B85232B19F02AE011962C938C8150
:100D60009D81E80EF91EFD82EC8294C08A859B85E8
:100D7000892BD9F06E817F81CE010E94E901FC01AF
:100D8000892B09F4C0C080E090E004C029E02083F2
:100D9000019631962E813F8182179307B8F38C819B
:100DA0009D81280F391F3D832C83BE01F801808966
:100DB00091890E948602009709F4B0C0CE010E947A
:100DC0003D018A859B85892B29F06894EE24E1F802
:100DD000F12C03C0EE24E394F12CB701CE010E9464
:100DE000E901009709F492C02AE3DC012C932A85DB
:100DF0003B85232B19F029E011962C936C817D8182
:100E00006E0D7F1D7D836C83BE01C8010E9492041C
:100E1000009709F483C0CE010E943D018A859B851D
:100E2000892B19F021E030E002C020E030E0F80129
:100E300080819181892B19F081E090E002C080E0EF
:100E400090E07901E80EF91EB7016F5F7F4FCE0188
:100E50000E94E901009709F45CC0D8012D913C91F2
:100E6000232B31F0FC0131962CE2DC012C9301C0E4
:100E7000FC018A859B85892B19F08AE08083319655
:100E800010828C819D81E80EF91EFD82EC82F801B2
:100E9000008111810115110509F068CF8A859B85B4
:100EA000892B29F06E817F816F5F7F4F02C062E0E6
:100EB00070E0CE010E94E901FC01892B69F18A856D
:100EC0009B85892B31F40EC029E020830196319651
:100ED00002C080E090E02E813F81215031098217CD
:100EE000930790F38DE7808311828E819F81019714
:100EF0009F838E8381E090E011C080E090E00EC07F
:100F000080E090E00BC080E090E008C080E090E0DE
:100F100005C080E090E002C080E090E0DF91CF91DA
:100F20001F910F91FF90EF9008950F931F93CF9310
:100F3000DF93EC0132C0088119818E819F8190FD81
:100F400006C08C819D81009711F00E9495078E81CB
:100F50009F8190FD0BC088859985009739F0E091BD
:100F60000801F09109010995198618868E819F81E3
:100F700091FD0BC088899989009739F0E0910801AB
:100F8000F09109010995198A188AE0910801F091F8
:100F90000901CE010995C02FD12F209761F6DF916D
:100FA000CF911F910F91089546E051E060E070E00D
:100FB0000E94450508950F931F93CF93DF938C01F3
:100FC00086E091E00E947802EC01009799F080E1C0
:100FD00090E09F838E8366E071E0C8010E945F010C
:100FE00099878887892B41F4CE010E94950780E07C
:100FF00090E004C09D2F02C08C2F9D2FDF91CF91D8
:101000001F910F910895CF92DF92EF92FF920F936D
:101010001F93CF93DF937C016B01CA010E94DB0712
:10102000D82FC92F00E010E026E031E0482F592FDB
:10103000B601C7010E948C01892B39F48D2F9C2F9A
:101040000E94950780E090E002C08D2F9C2FDF91D9
:10105000CF911F910F91FF90EF90DF90CF90089567
:1010600086E091E00E947802009729F020E430E0C9
:10107000FC01378326830895E0910801F09109016E
:10108000099508951F920F920FB60F9211242F9376
:101090003F934F935F936F937F938F939F93AF9300
:1010A000BF93EF93FF930E94D70A85B3816085BBFE
:1010B000FF91EF91BF91AF919F918F917F916F9130
:1010C0005F914F913F912F910F900FBE0F901F9006
:1010D000189584B1806B84B981E58CBD85B1806140
:1010E00085B9089595B19F7E95B98EBD0DB407FE63
:1010F000FDCF85B1806185B908950F931F93CF937C
:10110000DF938C01C0E0D0E009C00E9472088FEC30
:1011100097E00197F1F700C000002196F801EC0F6D
:10112000FD1F80818111F1CFDF91CF911F910F9130
:1011300008950F931F93CF93DF938C010E94300883
:10114000EC010097B1F0A80168EA71E00E94030881
:10115000CE010E94D4078C01009741F00E947D08C7
:101160008AE00E947208C8010E943C08CE010E94D9
:101170009507DF91CF911F910F9108958091EF0115
:101180008093EA0180E090E00E94140B80788093C5
:10119000EF018823B1F09091EA01911112C01092F1
:1011A000C7011092C60181E08093E7018FEA91E0C8
:1011B0000E9499081092C7011092C6011092E7018F
:1011C0000895882349F08091C6019091C701019646
:1011D0009093C7018093C60108958091E90180939F
:1011E000EC0181E090E00E94140B80788093E9018B
:1011F0008823B1F09091EC01911112C01092C501B9
:101200001092C40181E08093ED0182EB91E00E9495
:1012100099081092C5011092C4011092ED01089531
:10122000882349F08091C4019091C5010196909363
:10123000C5018093C40108958091F1018093E60176
:1012400082E090E00E94140B80788093F101882363
:10125000C1F08091E601811114C08091F0018F5F8F
:101260008093F001813029F485EB91E00E94990888
:101270000895823031F485EB91E00E949908109234
:10128000F00108958091E8018093EB0183E090E004
:101290000E94140B80788093E8018823C1F080912C
:1012A000EB01811114C08091EE018F5F8093EE01FC
:1012B000813029F488EB91E00E94990808958230EA
:1012C00031F488EB91E00E9499081092EE010895A4
:1012D0000E94990A8091CC01813041F51092CC0195
:1012E0000E94BE080E94ED080E941C090E9442094B
:1012F0008091C6019091C701883C9105B8F080911A
:10130000C4019091C501883C910580F08BEB91E080
:101310000E9499081092C7011092C6011092C5014F
:101320001092C4011092E7011092ED0108950E94FD
:101330008B0078940E94690878940E946809FDCF18
:101340000895CF93C82F0E94290C8823E1F38C2F96
:101350000E94390C0E942F0C8111FCCFCF9108956F
:101360000F931F93CF93DF9300D0CDB7DEB780915B
:10137000C8018F7051F00EC0F801E45FFE4F80810C
:101380000E94A1090F5F1F4F02C000E010E003316F
:10139000110590F385E50E94A1098091C8010E9482
:1013A000A1091A8219824EC089819A810E94EE0A8F
:1013B000192F0E94A109812F0E94A10989819A8178
:1013C0000E94FB0A192F0E94A109812F0E94A109E6
:1013D00089819A810E94EE0A8C0189819A810E94FA
:1013E000FB0A081B190B802F0E94A109812F0E9464
:1013F000A10989819A810E94070B192F0E94A109D6
:10140000812F0E94A10989819A810E94140B88234F
:1014100024F481E00E94A10903C080E00E94A10998
:1014200089819A81FC01EE0FFF1F8E0F9F1FFC0127
:10143000E95DFE4F80810E94A10989819A81019610
:101440009A83898389819A81049708F4ADCF80912A
:10145000CB010E94A1098091C80191E0980F90935F
:10146000C8010E94A1098AEA0E94A1090F900F9069
:10147000DF91CF911F910F91089582B1877F82B93B
:1014800082B18F7D82B982B18B7F82B982B18F7B2D
:1014900082B9089581E08093CD010895CF93DF93C1
:1014A0008DE391E00E94E8128CE092E00E947913B3
:1014B000C0E0D0E00BC0BE018DE391E00E947C143F
:1014C000BE018DE391E00E949B142196C430D105AA
:1014D00090F3C0E0D0E00FC0AE01440F551F440FA1
:1014E000551F4C0F5D1F48505E4F6C2F8FE191E0F0
:1014F0000E94B40C2196C430D10570F380E0DF91D6
:10150000CF9108958F5F8093CB010E94B009089519
:1015100087BD089588E00E94880AE3E6F0E08081B4
:10152000877F80830E943D0A0E944E0A0E94A00984
:1015300008958091CE01813051F46AE47AE08DE320
:1015400091E00E948313811102C01092CE0180911C
:10155000CD01813019F51092CD010E9481118111C8
:101560000AC08FE191E00E94D30C882339F081E01A
:101570000E94820A03C080E00E94820AE0911F015B
:10158000F09120018081882324F481E08093CE01B2
:1015900003C081E08093CC010E94B009089581E0EE
:1015A0008093CE0184E190E00E94A90C089580917F
:1015B000C9019091CA01449739F41092CA0110925E
:1015C000C9010E94CF0A08958091C9019091CA0172
:1015D00001969093CA018093C9010895FC01EE0F12
:1015E000FF1FEE0FFF1F8E0F9F1FFC01E850FE4FE5
:1015F000818192810895FC01EE0FFF1FE80FF91F12
:10160000EE0FFF1FEC5EFD4F848195810895FC0174
:10161000EE0FFF1FEE0FFF1F8E0F9F1FFC01E85004
:10162000FE4F838194810895E0912301F09124017C
:101630009C01220F331F820F931F880F991FE80F01
:10164000F91F808108951F920F920FB60F921124F7
:101650002F933F934F935F936F937F938F939F93BA
:10166000AF93BF93EF93FF930E94DB14FF91EF9131
:10167000BF91AF919F918F917F916F915F914F91AA
:101680003F912F910F900FBE0F901F90189584B12E
:101690008F7B84B985B18F7B85B984B1806284B931
:1016A00085B18F7D85B984B1806884B985B18F7724
:1016B00085B90E94A90B08950E940B0C08950E9401
:1016C000040C08958AB18E7F8AB98BB18E7F8BB955
:1016D0008AB182608AB98BB18D7F8BB90E94180C58
:1016E000089583E0809365008FEF809364009FE00E
:1016F0009093630091B111B892B182B994B114B8CA
:1017000095B185B997B117B898B188B99AB11AB897
:101710009BB18BB98DB180788DB98EB18F678EB941
:1017200040E060E881E690E00E94A20B13BE15BE87
:1017300078940E94470B0E945C0B0E945F0B0E94F2
:10174000620B08952FB7F894FC01608340832FBF8C
:101750000895E4E6F0E080818B7F808380ED8CBD8E
:10176000EFECF1E010821682158208951F920F921D
:101770000FB60F9211242F933F934F935F936F9364
:101780007F938F939F93AF93BF93EF93FF939EB5F8
:101790008091D301823029F0E091D001F091D10104
:1017A0009083EFECF1E0A181B2819D012F5F3F4F6B
:1017B00032832183813019F011969C9101C090E011
:1017C000EFECF1E0838181508383882311F09EBD8B
:1017D0000AC0EFECF1E083E080830580F681E02D24
:1017E000309709F00995FF91EF91BF91AF919F91CB
:1017F0008F917F916F915F914F913F912F910F90BA
:101800000FBE0F901F901895E4E6F0E08081877F6F
:10181000808380E00895E4E6F0E080818F7D80831E
:1018200082E084BD95E095BD80936E0080E00895D0
:10183000E4E6F0E080818D7F80831092C5008CE02B
:101840008093C4001092C00088E08093C10080E0C3
:1018500008958091C00085FB882780F908958091C4
:10186000C000829586958695837091E08927817066
:1018700008959091C00095FFFCCF8093C600089515
:10188000CF92DF92FF920F931F93CF93DF93EC01E0
:10189000AE81BF81EB01CC0FDD1FC60FD71FCA0F72
:1018A000DB1FFA80FC0144815581E6E0E69F900150
:1018B000E79F300D11248A01020F131FF8012281C6
:1018C0003381F90121813281F80104811581201BC6
:1018D000310BE8812E1B3109EC01EA81FB8100818B
:1018E0001181FA0140E050E04017510739F14617E5
:1018F0005707F9F012968C911297F8121AC080814E
:1019000085588230E8F0C480D58082819381EC01D3
:1019100089819A81C816D90660F48C199D09CC91E9
:10192000D0E0C817D90728F48C1B9D0B281739075E
:1019300038F04F5F5F4F13963696D6CF80E001C0E8
:1019400081E0DF91CF911F910F91FF90DF90CF90B9
:1019500008952091D6013091D701820F931F909363
:10196000D7018093D60108950097D9F0411551050C
:10197000C1F026E0629FB0011124DC011496ED91C4
:10198000FC911597E60FF71F21E0208314968D91A7
:101990009C911597FC01E60FF71F5383428380E06B
:1019A00008958BE008952F923F924F925F926F922D
:1019B0007F928F929F92AF92BF92CF92DF92EF92DF
:1019C000FF920F931F93CF93DF93009709F47EC389
:1019D000EC01A12CB12C812C912C212CD12C552443
:1019E000539433E0C32E45E8642E56E8752E62E02A
:1019F000362E78E0472EEA81FB818081918188161E
:101A0000990608F0A6C17501EE0CFF1CEC81FD8162
:101A1000EE0DFF1DA281B3819C919E7109F0508251
:101A20000C811D810E0D1F1DD8018C91843009F48D
:101A30009EC038F48230D1F008F045C0813059F0B2
:101A400081C1853809F4BFC0863809F4F5C08730F4
:101A500009F078C136C1911167C1F80130828C81DB
:101A60009D81FC01EE0DFF1D41825EC1D8011196E2
:101A70002C911197222329F11296ED91FC91139745
:101A8000253018F0818192810EC0D80114968D9175
:101A90009C911597418152818417950769F04817E9
:101AA000590730F4019715969C938E93149704C0B0
:101AB0000196F801958384832150D80111962C93C7
:101AC00033C1F8012DC1D80114962D913C91159781
:101AD0001296ED91FC91139741815281241735079D
:101AE00009F430C18E819F8142175307F8F4EA81CF
:101AF000FB81241B350BDC01AA0DBB1D8C9190E0F2
:101B0000058002C0959587950A94E2F799272817D2
:101B1000390708F417C18481882309F413C187E0C9
:101B2000F8018083EA81FB8124811AC0FC01EA0D5F
:101B3000FB1D421B530B808190E04817590708F4A6
:101B400001C18281882331F0B401CE010E94400C92
:101B50008111F8C0E4E0D801EC93EA81FB81228195
:101B60008C819D81FC01EE0DFF1D2183DDC0D8011C
:101B700014962D913C9115971296ED91FC91139727
:101B8000818192818217930708F4BBC0EE81FF81A7
:101B9000EA0DFB1D821B930B208130E028173907CB
:101BA00008F0C5C08281882331F0B401CE010E94C3
:101BB000400C8111C7C0F8018181882309F46AC0F3
:101BC00081508183B1C0E881F981AA81BB811896D7
:101BD0008C918383EC81FD81EE0DFF1D4481558145
:101BE000A281B38111968D919C91129784179507CC
:101BF000C0F0AE81BF81AA0DBB1D6C91262F30E0D5
:101C000011967C917F5F02C0359527957A95E2F712
:101C1000841B950B621B262F30E02817390708F428
:101C20008FC07082EA81FB8122818C819D81FC01C1
:101C3000EE0DFF1D218342C0D80114966D917C9159
:101C400015971296ED91FC911397218132812617F9
:101C5000370758F411968C911197811102C0CC92DC
:101C60006FC08150F80181836BC0EE81FF81EA0D66
:101C7000FB1D8081482F50E091819F5F02C05595E8
:101C800047959A95E2F7261B370B841B90E0821745
:101C9000930760F4D8016C92EA81FB8123818C81E7
:101CA0009D81FC01EE0DFF1D21834AC0F801818159
:101CB000811102C0C08244C08150818322242394B8
:101CC00033C0F801248135810280F381E02D8181C8
:101CD00092818217930758F5281B390BEE81FF81FB
:101CE000EA0DFB1D808190E0EA81FB81058002C046
:101CF000959587950A94E2F799272817390718F4DC
:101D0000D801CC9216C0F801818181110BC050829C
:101D10008C819D81FC01EE0DFF1D0280F381E02D81
:101D2000C08210C081508183DD24D3940BC0F801A0
:101D3000C0828C819D81FC01EE0DFF1D118202C0CD
:101D400022242394FFEF8F1A9F0A83E0A80EB11C70
:101D500052CEE881F981808187FF23C040E050E0C6
:101D600020E030E0EA81FB818081918128173907EA
:101D700098F4EC81FD81E40FF51FA281B3818C9171
:101D800080FD05C09081977F11F081608C932F5F5B
:101D90003F4F4A5F5F4FE6CFE881F98180818F77BF
:101DA0008083D11007C0E881F98121106FC0808144
:101DB0008E7F6EC0EA81FB8181858823A1F3E88153
:101DC000F981808180688083EA81FB81818581300F
:101DD00051F740E050E020E030E096E0D92EEA8173
:101DE000FB816081718126173707E8F60C811D8120
:101DF000FA01EE0FFF1FE00FF11F8081982F977FF0
:101E0000A1F1853811F08330B1F5EE80FF80D70164
:101E1000A40FB51F1296BC90BB2039F180E090E072
:101E2000C12C86179707F8F428173907D1F0D89EE8
:101E3000D001D99EB00D1124A00FB11FAC91A430D8
:101E400011F0A63871F4DC01AA0FBB1FA80FB91F4F
:101E5000AE0DBF1D1296AC91BA1203C0CB01CC24BB
:101E6000C3940196DECFC11006C00280F381E02D3D
:101E700080818E7F05C00280F381E02D80818160AA
:101E800080832F5F3F4F4D5F5F4FA9CF808181607F
:101E900080838091D6019091D701E881F9812181D9
:101EA0003281A90148535F4F4817590738F4821B04
:101EB000930BAA24A394A3E0BA2E44C082179307DD
:101EC00010F080E004C1821B930B0197893C9105BF
:101ED000C0F3EFCF885C9109E881F98121813281DB
:101EE00028533F4F328321832381211196C02481BF
:101EF000222311F021502483E881F98125812223B6
:101F000011F0215025838A809B80D40116962C9154
:101F1000169721111BC08A809B80F4012781211113
:101F200048C0EA81FB812381222361F020E030E078
:101F3000A0E0B0E0EA81FB8140815181A417B507A0
:101F400008F46EC0893C910528F6BBCF0881198141
:101F5000F80124812111DFCFED90FC9060E070E06A
:101F600040E050E04E155F05F1F0EC81FD81E60F99
:101F7000F71F2081233011F0283081F4248135812E
:101F8000C280D380D6011196CD90DC9012972C158B
:101F90003D0520F42F5F3F4F358324834F5F5F4F14
:101FA0006A5F7F4FDFCFF4012681D80114962C930E
:101FB000B2CF08811981D80115962C912111B1CF8A
:101FC000E080F18060E070E040E050E04E155F0599
:101FD000F1F0EC81FD81E60FF71F2081233011F035
:101FE000283081F424813581C280D380D6011196B6
:101FF000CD90DC901297C216D30620F421503109FF
:10200000358324834F5F5F4F6A5F7F4FDFCFF401DB
:102010002781D80115962C9384CF2150238381CF1B
:10202000A901440F551FEC81FD81E40FF51F60816C
:10203000653809F047C06181662319F061506183FA
:1020400041C0A0826C817D81FB01E40FF51F0280FD
:10205000F381E02DB082EE81FF81E20FF31FD28089
:10206000DD2081F140E050E000E010E0EA81FB81FA
:10207000608171810617170728F5EE81FF81E40F53
:10208000F51F6281D61219C0BA01660F771FEC8165
:10209000FD814F01860E971EF401E280F380F70167
:1020A000F080F0FE0AC0F401A082EC81FD81E60F11
:1020B000F71F0280F381E02DB0820F5F1F4F4D5F4D
:1020C0005F4FD4CF11962D5F3F4F34CF8BE0DF9120
:1020D000CF911F910F91FF90EF90DF90CF90BF9025
:1020E000AF909F908F907F906F905F904F903F90B8
:1020F0002F9008958091DF019091E001A0912C0232
:10210000B0912D02ED91FC9111974081518125E014
:10211000289FB001299F700D112420E030E0841722
:102120009507A8F41496ED91FC911597E20FF31F13
:10213000E60FF71FE0812B5F3F4FE0FD02C00196E5
:10214000EECF9093E0018093DF0180E0089510923C
:10215000E0011092DF0181E008954AE0489F90017C
:10216000499F300D1124E0912C02F0912D02028044
:10217000F381E02DE20FF31F42814093F800E091DC
:102180002C02F0912D020280F381E02DE20FF31F6B
:1021900043814093F900E0912C02F0912D020280DE
:1021A000F381E02DE20FF31F44814093FA00E091A8
:1021B0002C02F0912D020280F381E02DE20FF31F3B
:1021C0004281538164817581472F55276627772780
:1021D0004093FB00E0912C02F0912D020280F381EC
:1021E000E02DE20FF31F40814093F200E0912C02BA
:1021F000F0912D020280F381E02DE20FF31F418167
:102200004093F30065E0689FA001699F500D112481
:10221000E0912C02F0912D020480F581E02DE40F75
:10222000F51F83818093E500E0912C02F0912D024F
:102230000480F581E02DE40FF51F838194818827C8
:102240009F739093E600A0912C02B0912D021496FA
:10225000ED91FC911597E40FF51F808181FD60835E
:1022600014968D919C911597FC01E40FF51F8081C8
:102270008C7171F41296ED91FC911397E20FF31F9C
:10228000E085E295EF70F0E0E254FE4F808101C0FE
:102290008FE38093E700E0912C02F0912D02028001
:1022A000F381E02DE20FF31F86818B3F10F48C5FEA
:1022B00001C08FEF8093E800E0912C02F0912D0295
:1022C0000280F381E02DE20FF31F8781807F9185EB
:1022D000892B8093E400E0912C02F0912D02828101
:1022E0009381FC01E20FF31F87818F708093E100DF
:1022F00082E18093E0008091E90081608093E900B1
:1023000008954F925F926F927F928F929F92AF92B9
:10231000BF92CF92DF92EF92FF920F931F93CF93D2
:10232000DF938091DE01882309F431C1A0912C0252
:10233000B0912D02E0902E02F0902F02412C512CF2
:1023400060E070E000E010E080E06624639491E8D3
:10235000792EAA24AA94BB24B394CD90DC90119733
:10236000F601208131810217130708F00CC1E70143
:10237000299139917E011496ED91FC911597E60F04
:10238000F71F40814C7150E05695479556954795FB
:102390004115510521F041305105C1F0EBC01296B5
:1023A0004D915C911397440D551DEA0198859F70DE
:1023B0004985941710F4491B01C040E002C03695CE
:1023C00027954A95E2F732832183D5C012964D9125
:1023D0005C911397440D551DEA01098402C036959E
:1023E00027950A94E2F73283218343815481211592
:1023F000D2E03D0720F02F5F314091E005C0E501BC
:10240000C21BD30B9E0190E0E601DA80D0E4DD121E
:1024100005C036952795992319F009C0992339F0FD
:102420004F3F9FE3590731F470828EE007C0882444
:10243000839401C0812C2A30310598F41496ED91D3
:10244000FC911597E60FF71F208127FF60821496F5
:10245000ED91FC911597E60FF71F5F73548343834B
:102460008AC06A01CC24C0E3DC229D2C9294DFE078
:102470009D226A01CC24DFE0DD229D2D6A01C0EFA0
:10248000CC22DD2454E0D694C7945A95E1F75C2D14
:102490004F70811032C0203D310560F0D3E09D16B1
:1024A00049F093942F5C3109F6CF9F3041F09F5F44
:1024B0002551310926313105C0F79F3069F493E089
:1024C000991202C09FE008C0939495E005C05F3068
:1024D00049F05F5F2250310923303105C0F75F308A
:1024E00009F05BC09F3009F454C09F5F55E055C0B0
:1024F000992061F09A942F5C3109203D3105C0F795
:1025000005C0992341F091502551310926313105FB
:10251000C0F791110CC0911002C090E008C09A94CD
:102520009AE005C0552341F0515022503109233023
:102530003105C0F751110DC09923B9F191505AE0FE
:1025400023303105D0F605C02330310558F14FE076
:102550005FE0292D30E0322F22273295307F392B52
:10256000242BC0E15C9F60011124C22AD32AD482AB
:10257000C38201C0FFCF0F5F1F4F6B5F7F4FDAE059
:102580004D0E511CEACE92E09093DE0110C083E024
:102590000EC053E09516C1F25FE02330310508F01C
:1025A0007ACFD7CF5FE04FE0D4CF50E0D2CFDF91EA
:1025B000CF911F910F91FF90EF90DF90CF90BF9040
:1025C000AF909F908F907F906F905F904F90089505
:1025D0008F929F92AF92BF92CF92DF92EF92FF9233
:1025E000CF93DF93009709F476C0DC01ED91FC9165
:1025F000C080D180E12CF12CA0E0B0E040E050E0C0
:10260000BA0120E030E0AC15BD05B1F0EC01EA8183
:10261000FB81EE0DFF1DA080B1802A293B2982801D
:102620009380A480B580482959296A297B2911966D
:10263000DAE0ED0EF11CE7CF41155105610571059A
:1026400009F44BC0E091DE014A015B018824AA2411
:10265000BB246A017B01CC24DD24FF24872F99272A
:10266000AA27BB27E11117C02093F0003093F10097
:102670004093F400892C9A2CAB2CBB248092F5005B
:102680006701EE24FF24C092F6008093F70081E0FA
:102690008093DE011EC0E091F0002E2B2093F0000D
:1026A0002091F100232B2093F1002091F400422B84
:1026B0004093F4002091F50029292093F500209102
:1026C000F6002E292093F6002091F700822B8093AC
:1026D000F70080E003C08BE001C082E0DF91CF9182
:1026E000FF90EF90DF90CF90BF90AF909F908F9032
:1026F0000895009731F090932F0280932E0280E08E
:1027000008958BE00895CF93DF9300D000D0CDB72C
:10271000DEB71092E2011092E3011092E4011092F0
:10272000E5016115710509F4DBC0009709F4D8C013
:102730002091DE01222309F4D5C0243009F093C092
:102740001092E1018091E90080FF8BC02091E800A8
:1027500030E0A6E0B0E00E94B6166093E20170930C
:10276000E3018093E4019093E5012091E3002F7051
:10277000DC01CB01820F911DA11DB11D8093E201EF
:102780009093E301A093E401B093E5012091E4006C
:10279000277004C0880F991FAA1FBB1F2A95D2F764
:1027A0000E96A11DB11D8093E2019093E301A093C9
:1027B000E401B093E5012091E100237004C0880F8B
:1027C000991FAA1FBB1F2A95D2F722E0B695A7959D
:1027D000979587952A95D1F78093E2019093E3012D
:1027E000A093E401B093E50119821A821B821C8236
:1027F00021E049815A816B817C81481759076A071A
:102800007B07B0F43091E101332329F089839A8367
:10281000AB83BC8320E049815A816B817C814F5F0F
:102820005F4F6F4F7F4F49835A836B837C83E1CF28
:102830002223B9F08091E90080FF13C01092E000DC
:10284000000082E18093E000000081E08093E900D5
:102850008091DA019091DB0101969093DB018093E6
:10286000DA0181E042C090932D0280932C02709394
:10287000D9016093D801DC01ED91FC918281803413
:1028800011F488E003C0803879F58AE08093E20093
:10289000E0912C02F0912D020190F081E02D8481D5
:1028A000803108F080E18093E30081E084BF809371
:1028B00074001092E0011092DF010E947A108111E1
:1028C0000BC084E08093DE018091DF019091E001F4
:1028D0000E94AD1080E009C082E08093DE0105C057
:1028E0008BE003C083E001C082E00F900F900F9057
:1028F0000F90DF91CF9108950097C9F0DC01ED9121
:10290000FC911197208131812617370790F045E01F
:10291000469F9001479F300D11241496ED91FC9134
:102920001597E20FF31F81E0808380E008958BE02C
:10293000089582E008950097D1F1DC01ED91FC91BA
:102940001197208131812617370798F1228114963B
:10295000ED91FC911597203459F485E0869FD001C4
:10296000879FB00D1124AE0FBF1F84E392E00CC00F
:10297000203881F485E0869FD001879FB00D112417
:10298000AE0FBF1F87E695E014969C938E93139726
:1029900080E001C082E095E0969F9001979F300D06
:1029A0001124E20FF31F90819260908308958BE0D1
:1029B000089582E008951092E0008091EE00209149
:1029C000EF00E091DF01F091E001EE0FFF1F409179
:1029D0002E0250912F02E40FF51F90E0922B91836D
:1029E00080838091DC019091DD0101969093DD015F
:1029F0008093DC01892B21F41092DB011092DA0123
:102A00008091DF019091E00101969093E001809325
:102A1000DF010E947A1081110AC084E08093DE01F8
:102A20008091DF019091E0010E94AD1005C0E0911E
:102A3000D801F091D901099581E08093E1010895D1
:102A40005058BB27AA270E9438150C940A160E94DA
:102A5000FC1538F00E94031620F039F49F3F19F45A
:102A600026F40C94F9150EF4E095E7FB0C94F3159D
:102A7000E92F0E941B1658F3BA17620773078407E1
:102A8000950720F079F4A6F50C943D160EF4E09528
:102A90000B2EBA2FA02D0B01B90190010C01CA0118
:102AA000A0011124FF27591B99F0593F50F4503EC3
:102AB00068F11A16F040A22F232F342F4427585FB5
:102AC000F3CF469537952795A795F0405395C9F7CD
:102AD0007EF41F16BA0B620B730B840BBAF0915085
:102AE000A1F0FF0FBB1F661F771F881FC2F70EC024
:102AF000BA0F621F731F841F48F4879577956795F7
:102B0000B795F7959E3F08F0B0CF9395880F08F0E2
:102B10009927EE0F9795879508950E94CF1508F491
:102B200081E00895E89409C097FB3EF49095809564
:102B3000709561957F4F8F4F9F4F9923A9F0F92F83
:102B400096E9BB279395F695879577956795B79501
:102B5000F111F8CFFAF4BB0F11F460FF1BC06F5FE7
:102B60007F4F8F4F9F4F16C0882311F096E911C0F9
:102B7000772321F09EE8872F762F05C0662371F01A
:102B800096E8862F70E060E02AF09A95660F771F2E
:102B9000881FDAF7880F9695879597F90895990F0A
:102BA0000008550FAA0BE0E8FEEF16161706E80717
:102BB000F907C0F012161306E407F50798F0621B38
:102BC000730B840B950B39F40A2661F0232B242B0D
:102BD000252B21F408950A2609F4A140A6958FEF2C
:102BE000811D811D089597F99F6780E870E060E07E
:102BF00008959FEF80EC089500240A941616170696
:102C000018060906089500240A94121613061406DD
:102C100005060895092E0394000C11F4882352F040
:102C2000BB0F40F4BF2B11F460FF04C06F5F7F4FF8
:102C30008F4F9F4F089557FD9058440F551F59F0DF
:102C40005F3F71F04795880F97FB991F61F09F3F99
:102C500079F087950895121613061406551FF2CFC2
:102C60004695F1DF08C0161617061806991FF1CF12
:102C700086957105610508940895E894BB27662739
:102C80007727CB0197F908950E94CF1508F48FEFAD
:102C900008950E945C160C940A160E94FC1538F0E8
:102CA0000E94031620F0952311F00C94F3150C9458
:102CB000F91511240C943E160E941B1670F3959F73
:102CC000C1F3950F50E0551F629FF001729FBB2723
:102CD000F00DB11D639FAA27F00DB11DAA1F649FBF
:102CE0006627B00DA11D661F829F2227B00DA11D72
:102CF000621F739FB00DA11D621F839FA00D611DF8
:102D0000221F749F3327A00D611D231F849F600D18
:102D1000211D822F762F6A2F11249F5750409AF041
:102D2000F1F088234AF0EE0FFF1FBB1F661F771FCD
:102D3000881F91505040A9F79E3F510580F00C9498
:102D4000F3150C943E165F3FE4F3983ED4F386955A
:102D500077956795B795F795E7959F5FC1F7FE2B38
:102D6000880F911D9695879597F90895A29FB001B8
:102D7000B39FC001A39F700D811D1124911DB29FAF
:102D8000700D811D1124911D08950F931F93CF93F2
:102D9000DF938230910510F482E090E0E0913202FE
:102DA000F091330220E030E0A0E0B0E0309719F17C
:102DB000408151810281138148175907C8F0841757
:102DC000950769F4109731F012960C9312971396A9
:102DD0001C9327C0009332021093330222C02115A6
:102DE000310519F04217530718F49A01BD01EF019C
:102DF000DF01F801DBCF21153105F9F0281B390B74
:102E00002430310580F48A819B816115710521F0A0
:102E1000FB019383828304C0909333028093320238
:102E2000FE01329644C0FE01E20FF31F819391939D
:102E300022503109398328833AC0209130023091E1
:102E40003102232B41F42091020130910301309390
:102E500031022093300220910001309101012115AF
:102E6000310541F42DB73EB7409104015091050161
:102E7000241B350BE0913002F0913102E217F30789
:102E8000A0F42E1B3F0B2817390778F0AC014E5FDA
:102E90005F4F2417350748F04E0F5F1F50933102E4
:102EA000409330028193919302C0E0E0F0E0CF01C3
:102EB000DF91CF911F910F910895CF93DF930097EA
:102EC00009F481C0FC01329713821282A091320270
:102ED000B0913302109781F420813181820F931FCA
:102EE00020913002309131022817390751F5F093C3
:102EF0003102E093300267C0ED0120E030E0CE17F0
:102F0000DF0740F44A815B819E0141155105F1F0D4
:102F1000EA01F5CFD383C28340815181840F951F8D
:102F2000C817D90759F488819981840F951F029693
:102F3000918380838A819B819383828321153105CC
:102F400029F4F0933302E09332023DC0E901FB83A0
:102F5000EA8349915991C40FD51FEC17FD0761F41D
:102F600080819181840F951F0296E901998388835E
:102F7000828193819B838A83E0E0F0E012968D91B9
:102F80009C911397009719F0FD01DC01F7CF8D910B
:102F90009C9111979D012E5F3F4F820F931F2091AF
:102FA0003002309131022817390769F4309729F43B
:102FB000109233021092320202C013821282B09336
:102FC0003102A0933002DF91CF910895A0E0B0E0EC
:102FD000ECEEF7E10C94A01EEC01009721F4CB017C
:102FE0000E94C516B4C0FC01E60FF71F9C012250D9
:102FF0003109E217F30708F4A8C0D9010D911C911B
:10300000119706171707B0F00530110508F49BC09B
:10301000C80104978617970708F495C00250110954
:10302000061B170B019311936D937C93CF010E94A4
:103030005D1789C05B01A01AB10A4C01800E911E78
:10304000A0913202B0913302612C712CE12CF12C51
:10305000109709F446C08D919C911197A815B90558
:10306000B1F56C0142E0C40ED11CCA14DB0478F146
:103070004C018A189B08640142E0C40ED11C1296D0
:10308000BC9012971396AC91B5E0CB16D10440F0EA
:10309000B282A38391828082D9016D937C9309C00F
:1030A0000E5F1F4F800F911FF90191838083EB2DDD
:1030B000FA2FE114F10431F0D7011396FC93EE934B
:1030C000129741C0F0933302E09332023CC068167D
:1030D000790608F43C017D0112960D90BC91A02D5B
:1030E000B7CF809130029091310288169906E1F4B1
:1030F00066167706C8F4809100019091010100974F
:1031000041F48DB79EB74091040150910501841B95
:10311000950BE817F907C8F4F0933102E0933002F9
:10312000F901718360830FC0CB010E94C5167C0139
:10313000009759F0A801BE010E94B518CE010E9467
:103140005D17C70104C0CE0102C080E090E0CDB79A
:10315000DEB7EEE00C94BC1E91110C94871D8032FA
:1031600019F089508550C8F70895FB01DC0102C0B1
:1031700001900D9241505040D8F70895AEE0B0E074
:10318000E4ECF8E10C94AA1E0D891E8986E08C837C
:103190001A8309838FEF9FE79E838D83AE01475E7D
:1031A0005F4F6F89788DCE0101960E94F918EF81EB
:1031B000F885E00FF11F10822E96E4E00C94C61EF5
:1031C000AEE0B0E0E6EEF8E10C94AC1E85E08C8356
:1031D0008B899C899A838983AE01495E5F4F6D8993
:1031E0007E89CE0101960E94761C2E96E2E00C9418
:1031F000C81EABE0B0E0EFEFF8E10C949C1E6C0150
:103200007B018A01FC0117821682838181FFCCC178
:10321000CE0101963C01F6019381F70193FD859162
:1032200093FF81917F01882309F4BAC1853239F473
:1032300093FD859193FF81917F01853229F4B60139
:1032400090E00E94E91DE7CF912C212C312CFFE169
:10325000F315D8F08B3279F038F4803279F083327C
:10326000A1F4232D20611DC08D3261F0803369F4FB
:10327000232D216016C0832D8260382EE32DE4605B
:103280003E2E2AC0F32DF8601DC037FC2DC020ED66
:10329000280F2A3040F08E32B9F436FC81C1232D3C
:1032A0002064322E19C036FE06C08AE0989E200D9A
:1032B0001124922E11C0EAE02E9E200D1124222E00
:1032C000F32DF0623F2E08C08C3621F4832D8068E8
:1032D000382E02C0883641F4F70193FD859193FFA3
:1032E00081917F018111B3CF982F9F7D95549330A9
:1032F00028F40C5F1F4F9FE399830DC0833631F094
:10330000833771F0833509F059C021C0F8018081FD
:1033100089830E5F1F4F88248394912C530113C01F
:103320002801F2E04F0E511CF801A080B18036FE5A
:1033300003C0692D70E002C06FEF7FEFC5010E94EE
:10334000A01D4C018201F32DFF773F2E16C02801EE
:1033500022E0420E511CF801A080B18036FE03C06D
:10336000692D70E002C06FEF7FEFC5010E94951DCF
:103370004C01F32DF0683F2E820133FC1BC0822DDF
:1033800090E088169906B0F4B60180E290E00E94C1
:10339000E91D2A94F4CFF50137FC859137FE819120
:1033A0005F01B60190E00E94E91D21102A9421E0FE
:1033B000821A91088114910471F7E8C0843611F0E3
:1033C000893641F5F80137FE07C06081718182813D
:1033D00093810C5F1F4F08C060817181072E000C24
:1033E000880B990B0E5F1F4FF32DFF763F2E97FF33
:1033F00009C090958095709561957F4F8F4F9F4F35
:10340000F0683F2E2AE030E0A3010E943E1E882E85
:10341000861845C0853731F4232D2F7EB22E2AE041
:1034200030E025C0932D997FB92E8F36C1F018F466
:10343000883579F0B5C0803719F0883721F0B0C0F1
:10344000E92FE061BE2EB4FE0DC0FB2DF460BF2E4F
:1034500009C034FE0AC0292F2660B22E06C028E01B
:1034600030E005C020E130E002C020E132E0F801A8
:10347000B7FE07C060817181828193810C5F1F4F0D
:1034800006C06081718180E090E00E5F1F4FA30154
:103490000E943E1E882E8618FB2DFF773F2E36FE9B
:1034A0000DC0232D2E7FA22E891458F434FE0BC09C
:1034B00032FC09C0832D8E7EA82E05C0B82CA32C0B
:1034C00003C0B82C01C0B92CA4FE0FC0FE01E80D4A
:1034D000F11D8081803321F49A2D997EA92E09C097
:1034E000A2FE06C0B394B39404C08A2D867809F076
:1034F000B394A3FC11C0A0FE06C0B21488F4280C3B
:10350000922C9B180EC0B21460F4B60180E290E0D9
:103510000E94E91DB394F7CFB21418F42B1802C01F
:10352000982C212CA4FE10C0B60180E390E00E94EC
:10353000E91DA2FE17C0A1FC03C088E790E002C00D
:1035400088E590E0B6010CC08A2D867859F0A1FE7E
:1035500002C08BE201C080E2A7FC8DE2B60190E0E0
:103560000E94E91D891438F4B60180E390E00E94BE
:10357000E91D9A94F7CF8A94F301E80DF11D80813B
:10358000B60190E00E94E91D8110F5CF222009F4D8
:1035900042CEB60180E290E00E94E91D2A94F6CF67
:1035A000F6018681978102C08FEF9FEF2B96E2E1B3
:1035B0000C94B81E20FD09C0FC0123FD05C022FFAC
:1035C00002C07383628351834083089544FD17C012
:1035D00046FD17C0AB01BC01DA01FB01AA0FBB1FFE
:1035E000EE1FFF1F1094D1F74A0F5B1F6E1F7F1F46
:1035F000CB01BA01660F771F881F991F09C033E0FE
:1036000001C034E0660F771F881F991F3150D1F732
:10361000620F711D811D911D08950F931F93CF930C
:10362000DF938C01C8010E94AB1DEC0197FD08C01F
:103630000E94AC18892BB1F7B801CE010E94251E5B
:10364000CE01DF91CF911F910F9108958F929F929C
:10365000AF92BF92EF92FF920F931F93CF93DF939E
:103660008C01D62F7A01B22E0E94AB1D9C0133270C
:103670002B32310531F02D32310561F48B2D80680C
:10368000B82ED15011F480E068C0C8010E94AB1D73
:1036900097FDF9CFCB2DCD7F2B2D207309F58033EE
:1036A000F9F4AA24AA94AD0E09F443C0C8010E94FB
:1036B000AB1D97FD3EC09C012F7D3327283531057A
:1036C00049F4C264D250A9F1C8010E94AB1D97FF12
:1036D00007C02FC0B6FE02C0C26001C0C261DA2DB1
:1036E000812C912C540120ED280F283080F0C4FF4C
:1036F00004C0B8010E94251E19C02A3040F0C6FF40
:10370000F8CF2F7D3FEE320F363098F727504C2FF1
:10371000C501B4010E94E61A4B015C01C260D150A0
:1037200059F0C8010E94AB1D97FFDDCFC1FD04C059
:10373000AACF812C912C5401C7FF08C0B094A0944B
:1037400090948094811C911CA11CB11C2C2FB5015C
:10375000A401C7010E94DA1A81E0DF91CF911F9185
:103760000F91FF90EF90BF90AF909F908F90089532
:10377000A0E2B0E0EEEBFBE10C949F1E5C01962E04
:103780007A01F9018E010F5F1F4F680180E2D801B5
:103790001D928A95E9F7D50113968C9080E090E010
:1037A000612C712C30E061E070E083FC259183FE98
:1037B00021918F01522E211103C080E090E092C030
:1037C0002E3511F4009751F1432F50E04817590757
:1037D0003CF42D3559F12D3219F4772009F103C04D
:1037E000772009F46AC0452D469546954695D60141
:1037F000A40FB11D452D47708B0102C0000F111F92
:103800004A95E2F7A8015C91452B4C93651459F059
:10381000561410F45394E7CF5A94E5CF31E004C026
:103820007724739401C0712C0196BFCF772019F0D3
:103830008E8180628E83311103C08824839417C0E7
:10384000F6019E012F5D3F4F8081809581932E1759
:103850003F07D1F7F2CFE114F10429F0D7018C939F
:10386000F70131967F019A94812C9920F9F0C501D6
:103870000E94AB1D97FD18C0FC01FF2723E0F595C2
:10388000E7952A95E1F7EC0DFD1D208130E0AC01B4
:103890004770552702C0359527954A95E2F720FDD8
:1038A000DACFB5010E94251E811087CFE114F10403
:1038B00011F0D7011C92C80115C0422F46954695BC
:1038C0004695D601A40FB11D422F47708B0102C04F
:1038D000000F111F4A95E2F7A8015C91452B4C930C
:1038E000622EA2CFA096EFE00C94BB1EA0E0B0E049
:1038F000ECE7FCE10C949F1E6C01EB015A01FC010A
:1039000017821682512CF601E380FE01E3FC8591BB
:10391000E3FE8191182FEF01882309F4EEC090E0B7
:103920000E94AC18892B21F0C6010E940D1BEBCF21
:10393000153241F4FE01E3FC1591E3FE1191EF0114
:10394000153281F4C6010E94AB1D97FDD4C0412FF2
:1039500050E09C01332724173507A9F2B6010E94D5
:10396000251ECBC01A3239F4E3FC1591E3FE119108
:10397000EF0101E001C000E0F12C20ED210F2A3021
:1039800080F402606F2D70E080E090E040E20E94E1
:10399000E61AF62EFE01E3FC1591E3FE1191EF010C
:1039A000ECCF01FF03C0F11003C0A7C0FF24FA94BD
:1039B000183619F01C3651F010C0FE01E3FC1591C9
:1039C000E3FE1191EF01183641F408600460FE0136
:1039D000E3FC1591E3FE1191EF01112309F48DC071
:1039E000612F70E08CEC90E00E948A1D892B09F415
:1039F00084C000FD07C0F50180809180C50102965A
:103A00005C0102C0812C912C1E3651F4F6014681D6
:103A1000578160E070E0202FC4010E94DA1A73CF52
:103A20001336A9F401FD02C0FF24F394C6010E94DD
:103A3000AB1D97FD60C08114910429F0F4018083CF
:103A4000C40101964C01FA94F110F0CF50C01B351F
:103A500059F49E01A4016F2DC6010E94B81BEC0110
:103A6000892B09F044C03EC0C6010E940D1B97FD82
:103A700042C01F3661F128F4143639F1193651F17C
:103A800028C0133771F0153701F123C08114910458
:103A900029F0F4016082C40101964C01FA94FF20E0
:103AA00071F0C6010E94AB1D3C0197FD08C00E9449
:103AB000AC18892B59F3B601C3010E94251E81144D
:103AC0009104A9F0F401108212C0006203C00061E9
:103AD00001C00064202FA4016F2DC6010E94261B87
:103AE000811105C0F6018381807329F406C000FDB1
:103AF0000ACF539408CF552019F0852D90E002C0CD
:103B00008FEF9FEFCDB7DEB7EFE00C94BB1E992788
:103B100088270895FC010590061621F00020D9F7AA
:103B2000C00108953197CF010895FC0105906150BF
:103B300070400110D8F7809590958E0F9F1F0895C3
:103B4000FC016150704001900110D8F7809590956C
:103B50008E0F9F1F0895CF93DF93EC012B8120FFE1
:103B600033C026FF0AC02F7B2B838E819F81019655
:103B70009F838E838A8190E029C022FF0FC0E88155
:103B8000F9818081082E000C990B009719F42062AE
:103B90002B831AC03196F983E8830EC0EA85FB8532
:103BA000099597FF09C02B81019611F080E201C0B1
:103BB00080E1822B8B8308C02E813F812F5F3F4F96
:103BC0003F832E83992702C08FEF9FEFDF91CF9124
:103BD00008950F931F93CF93DF93FB01238121FD62
:103BE00003C08FEF9FEF2CC022FF16C04681578184
:103BF000248135814217530744F4A081B1819D018E
:103C00002F5F3F4F318320838C93268137812F5F35
:103C10003F4F3783268314C08B01EC01FB010084E6
:103C2000F185E02D0995892BE1F6D80116968D9145
:103C30009C911797019617969C938E931697CE0199
:103C4000DF91CF911F910F910895FB01238120FFF8
:103C500012C026FD10C08F3F3FEF930761F08283B3
:103C60002F7D2064238326813781215031093783BA
:103C70002683992708958FEF9FEF0895FA01AA27C9
:103C8000283051F1203181F1E8946F936E7F6E5F9F
:103C90007F4F8F4F9F4FAF4FB1E03ED0B4E03CD04D
:103CA000670F781F891F9A1FA11D680F791F8A1F30
:103CB000911DA11D6A0F711D811D911DA11D20D097
:103CC00009F468943F912AE0269F11243019305D51
:103CD0003193DEF6CF010895462F4770405D419342
:103CE000B3E00FD0C9F7F6CF462F4F70405D4A338F
:103CF00018F0495D31FD4052419302D0A9F7EACF57
:103D0000B4E0A6959795879577956795BA95C9F785
:103D100000976105710508959B01AC010A2E069478
:103D20005795479537952795BA95C9F7620F731F31
:103D3000841F951FA01D08952F923F924F925F926E
:103D40006F927F928F929F92AF92BF92CF92DF92AB
:103D5000EF92FF920F931F93CF93DF93CDB7DEB710
:103D6000CA1BDB0B0FB6F894DEBF0FBECDBF0994A4
:103D70002A88398848885F846E847D848C849B84FB
:103D8000AA84B984C884DF80EE80FD800C811B8109
:103D9000AA81B981CE0FD11D0FB6F894DEBF0FBE38
:0A3DA000CDBFED010895F894FFCFA8
:103DAA00000034022000C5165D17E6175FB40086CE
:103DBA004A03EB00000000000000AA55016EA0F2C1
:103DCA000133011402270119010019010019010028
:103DDA00190100040003000400140514016B0143D7
:103DEA0001F801000008000000000122060000207E
:103DFA000000000001220600000400000000012269
:103E0A000600004000000000012206040080300085
:103E1A00EFBBBF007525303478006E756C6C0025D9
:103E2A00640025312E31356700256C670025312E57
:103E3A003137670066616C736500747275650025B9
:103E4A00692E25692E256900646576696365004CCB
:103E5A0031004C32004C33004C34004431003F1CDA
:043E6A000B05030140
:00000001FF
